{
  "contractName": "TasksContract",
  "abi": [
    {
      "inputs": [
        {
          "internalType": "uint256",
          "name": "",
          "type": "uint256"
        }
      ],
      "name": "tasks",
      "outputs": [
        {
          "internalType": "uint256",
          "name": "id",
          "type": "uint256"
        },
        {
          "internalType": "string",
          "name": "title",
          "type": "string"
        },
        {
          "internalType": "string",
          "name": "description",
          "type": "string"
        },
        {
          "internalType": "bool",
          "name": "done",
          "type": "bool"
        },
        {
          "internalType": "uint256",
          "name": "createdAt",
          "type": "uint256"
        }
      ],
      "stateMutability": "view",
      "type": "function",
      "constant": true
    },
    {
      "inputs": [
        {
          "internalType": "string",
          "name": "_title",
          "type": "string"
        },
        {
          "internalType": "string",
          "name": "_description",
          "type": "string"
        }
      ],
      "name": "createTask",
      "outputs": [],
      "stateMutability": "nonpayable",
      "type": "function"
    }
  ],
  "bytecode": "0x60806040526000805534801561001457600080fd5b506107a4806100246000396000f3fe608060405234801561001057600080fd5b50600436106100365760003560e01c8063292a45851461003b5780638d97767214610057575b600080fd5b610055600480360381019061005091906103d2565b61008b565b005b610071600480360381019061006c919061044a565b610157565b6040516100829594939291906104ce565b60405180910390f35b6040518060a0016040528060005481526020018381526020018281526020016000151581526020014281525060016000805481526020019081526020016000206000820151816000015560208201518160010190805190602001906100f19291906102aa565b50604082015181600201908051906020019061010e9291906102aa565b5060608201518160030160006101000a81548160ff0219169083151502179055506080820151816004015590505060008081548092919061014e9061065c565b91905055505050565b6001602052806000526040600020600091509050806000015490806001018054610180906105f9565b80601f01602080910402602001604051908101604052809291908181526020018280546101ac906105f9565b80156101f95780601f106101ce576101008083540402835291602001916101f9565b820191906000526020600020905b8154815290600101906020018083116101dc57829003601f168201915b50505050509080600201805461020e906105f9565b80601f016020809104026020016040519081016040528092919081815260200182805461023a906105f9565b80156102875780601f1061025c57610100808354040283529160200191610287565b820191906000526020600020905b81548152906001019060200180831161026a57829003601f168201915b5050505050908060030160009054906101000a900460ff16908060040154905085565b8280546102b6906105f9565b90600052602060002090601f0160209004810192826102d8576000855561031f565b82601f106102f157805160ff191683800117855561031f565b8280016001018555821561031f579182015b8281111561031e578251825591602001919060010190610303565b5b50905061032c9190610330565b5090565b5b80821115610349576000816000905550600101610331565b5090565b600061036061035b84610554565b61052f565b90508281526020810184848401111561037c5761037b610737565b5b6103878482856105b7565b509392505050565b600082601f8301126103a4576103a3610732565b5b81356103b484826020860161034d565b91505092915050565b6000813590506103cc81610757565b92915050565b600080604083850312156103e9576103e8610741565b5b600083013567ffffffffffffffff8111156104075761040661073c565b5b6104138582860161038f565b925050602083013567ffffffffffffffff8111156104345761043361073c565b5b6104408582860161038f565b9150509250929050565b6000602082840312156104605761045f610741565b5b600061046e848285016103bd565b91505092915050565b610480816105a1565b82525050565b600061049182610585565b61049b8185610590565b93506104ab8185602086016105c6565b6104b481610746565b840191505092915050565b6104c8816105ad565b82525050565b600060a0820190506104e360008301886104bf565b81810360208301526104f58187610486565b905081810360408301526105098186610486565b90506105186060830185610477565b61052560808301846104bf565b9695505050505050565b600061053961054a565b9050610545828261062b565b919050565b6000604051905090565b600067ffffffffffffffff82111561056f5761056e610703565b5b61057882610746565b9050602081019050919050565b600081519050919050565b600082825260208201905092915050565b60008115159050919050565b6000819050919050565b82818337600083830152505050565b60005b838110156105e45780820151818401526020810190506105c9565b838111156105f3576000848401525b50505050565b6000600282049050600182168061061157607f821691505b60208210811415610625576106246106d4565b5b50919050565b61063482610746565b810181811067ffffffffffffffff8211171561065357610652610703565b5b80604052505050565b6000610667826105ad565b91507fffffffffffffffffffffffffffffffffffffffffffffffffffffffffffffffff82141561069a576106996106a5565b5b600182019050919050565b7f4e487b7100000000000000000000000000000000000000000000000000000000600052601160045260246000fd5b7f4e487b7100000000000000000000000000000000000000000000000000000000600052602260045260246000fd5b7f4e487b7100000000000000000000000000000000000000000000000000000000600052604160045260246000fd5b600080fd5b600080fd5b600080fd5b600080fd5b6000601f19601f8301169050919050565b610760816105ad565b811461076b57600080fd5b5056fea2646970667358221220a23ad1d8c39f072fde229088c16b03ca6e99320109e318b65486ac5df3dbdd1b64736f6c63430008060033",
  "immutableReferences": {},
  "source": "// SPDX-Licence-Identifier: MIT\npragma solidity ^0.8.6;\n\ncontract TasksContract {\n\n    uint taskCounter=0;\n\n    struct Task {\n        uint256 id;\n        string title;\n        string description;\n        bool done;\n        uint256 createdAt;\n    }\n    mapping(uint256 => Task) public tasks;\n\n    function createTask(string memory _title, string memory _description)\n        public\n    {\n        tasks[taskCounter]=Task(taskCounter,_title, _description, false, block.timestamp);\n        taskCounter++;\n    }\n\n    // function toggleDone(){}\n}\n",
  "sourcePath": "/Users/davidmateomerino/Library/CloudStorage/OneDrive-Personal/myfirstcontract/contracts/TasksContract.sol",
  "compiler": {
    "name": "solc",
    "version": "0.8.6+commit.11564f7e.Emscripten.clang"
  },
  "schemaVersion": "3.4.13",
  "updatedAt": "2023-03-08T11:44:54.886Z",
  "networkType": "ethereum",
  "devdoc": {
    "kind": "dev",
    "methods": {},
    "version": 1
  },
  "userdoc": {
    "kind": "user",
    "methods": {},
    "version": 1
  }
}